:040000008A11112828
:10000800FE00030EF0000408F1000A08F200831253
:1000180003137F08F3008A11EC2D8A1113288A1123
:100028004226D500D001D101D201D301D401F60175
:10003800F701F801F90183018A1122288A11112692
:100048008A118A117D258A118B178A113D268A11FA
:10005800750883120313C8007408C7008A113D2667
:100068008A11750883120313CA007408C900CE01E7
:10007800CB01CC010030B1000030B0000430AF003B
:10008800B030AE008A1196228A11323083120313DF
:10009800C0004008CF00013084008A1100258A1171
:1000A800AD008A1100258A11AE008A1100258A1137
:1000B800AF008A1100258A11B0008A11A4218A1183
:1000C800831203134F088A110C248A118A112626D9
:1000D8008A1105308A11CC258A1105308312031341
:1000E800C0004008CD00831203134709C000480927
:1000F800C100C00A0319C10A8A113D268A11831258
:10010800031340087407C20041080318410A750721
:10011800C3004308803AFF0083307F02031D9628FE
:10012800E9304202031CBE288A113D268A1175084F
:1001380083120313C8007408C7000310541D031466
:10014800031CAA28831203135415AD288312031322
:100158005411540887004E080319BE285416540831
:1001680087008A113D268A11750883120313C60079
:100178007408C500831203134909C0004A09C10065
:10018800C00A0319C10A8A113D268A118312031372
:1001980040087407C20041080318410A7507C300E4
:1001A8004308803AFF0080307F02031DDD280B30B2
:1001B8004202031C36298A113D268A1175088312CA
:1001C8000313CA007408C9005F304F02031CF028EB
:1001D800FB30C0004008CD004F08031DF72805304C
:1001E800C0004008CD005F304F06031D01290130D3
:1001F800CB070318CC0A0030CC074C08803AFF0024
:1002080080307F02031D0A2901304B02031C232979
:10021800831203134C08803AFF0080307F02031DCD
:10022800172964304B02031C362983120313CB01B0
:10023800CC014F084D07C0004008CF003629831273
:1002480003134F084D07C0004008CF008A1130261D
:100258008A11831203134F088A110C248A118A11F8
:1002680026268A1183120313541E5F294509C000EC
:100278004609C100C00A0319C10A8A113D268A111C
:100288008312031340087407C20041080318410A87
:100298007507C3004308803AC40080304402031D38
:1002A80057294E084202031C5F2983120313541274
:1002B80054088700CE0183120313071B6B290530EE
:1002C800C0004008CE0019308A11CC258A1183124B
:1002D8000313051A77290A30C0004008CE002630DB
:1002E8008A11CC258A1183120313851A83290A30AF
:1002F800C0004008CE002D308A11CC258A11831207
:10030800031387198F290A30C0004008CE00343003
:100318008A11CC258A118A1137268A11003A031DC1
:100328007728023083120313C2000430C100BA30A8
:10033800C000C00B9D29C10B9D29C20B9D297728A0
:1003480083120313B501B50A0030BD000030BC00AC
:100358000030BB000030BA000030B9000030B800EF
:100368000030B7000030B6008316031387128312DB
:1003780003133008D3002F08D2002E08D1002D080F
:10038800D0003008A3002F08A2002E08A1002D08D5
:10039800A0000030A7003D30A6000930A5000030BD
:1003A800A4008A1182248A11831203132308BD0032
:1003B8002208BC002108BB002008BA000230031044
:1003C800BD0CBC0CBB0CBA0CFF3E031DE329550841
:1003D800B100B201B301B4013408A3003308A2008C
:1003E8003208A1003108A0003D08A7003C08A6007B
:1003F8003B08A5003A08A4008A1182248A118312B6
:1004080003132308BD002208BC002108BB002008F4
:10041800BA003D08031D1C2A3C08031D1C2A3B0882
:10042800031D1C2AFF303A02031D1A2A031C8A2ABC
:1004380004308312B1003108D5005508B100B2016B
:10044800B301B4013408A3003308A2003208A100A4
:100458003108A0003D08A7003C08A6003B08A500FD
:100468003A08A4008A1182248A11831203132308EC
:10047800B9002208B8002108B7002008B6003908DA
:10048800031D542A3808031D542A3708031D542A0B
:10049800FF303602031D502A0318542A36088B2AC7
:1004A80010308312B1003108D5005508B100B201EF
:1004B800B301B4013408A3003308A2003208A10034
:1004C8003108A0003D08A7003C08A6003B08A5008D
:1004D8003A08A4008A1182248A118312031323087C
:1004E800BD002208BC002108BB002008BA003D0856
:1004F800031D902A3C08031D902A3B08031D902ADF
:10050800FF303A02031D882A0318902A3A08FF3E52
:10051800831603139200922A8312B5018312950160
:1005280097010800831203132E08B2002F08B300A6
:100538003008B4003108B50006300310B20DB30D11
:10054800B40DB50DFF3E031DA12A3508A3003408DC
:10055800A2003308A1003208A0000030B60009301C
:10056800B7003D30B8000030B9002E08BA002F0897
:10057800BB003008BC003108BD0006300310BA0DBE
:10058800BB0DBC0DBD0DFF3E031DC22ABA09BB0938
:10059800BC09BD09BA0A0319BB0A0319BC0A031925
:1005A800BD0A3A08B6073B0803183B0FDC2ADD2AC8
:1005B800B7073C0803183C0FE22AE32AB8073D08AE
:1005C80003183D0AB9073908A7003808A6003708F4
:1005D800A5003608A4008A117D238A11831203130B
:1005E8002108BF002008BE0001303F020030031977
:1005F8003E02031C622B2E08B2002F08B3003008FD
:10060800B4003108B50004300310B20DB30DB40DB9
:10061800B50DFF3E031D082B3508A3003408A200C2
:100628003308A1003208A0000030B6000930B70036
:100638003D30B8000030B9002E08BA002F08BB00C2
:100648003008BC003108BD0004300310BA0DBB0DE2
:10065800BC0DBD0DFF3E031D292BBA09BB09BC0902
:10066800BD09BA0A0319BB0A0319BC0A0319BD0A52
:100678003A08B6073B0803183B0F432B442BB70730
:100688003C0803183C0F492B4A2BB8073D080318B0
:100698003D0AB9073908A7003808A6003708A50099
:1006A8003608A4008A117D238A11831203132108B6
:1006B800BF002008BE0083160313181501308312EB
:1006C8003F02003003193E02031808003E08831653
:1006D8000313990018128312031398178316031330
:1006E8008617061783120313181683160313981612
:1006F800080083120313A901A31F8F2BA009A109C6
:10070800A209A309A00A0319A10A0319A20A031935
:10071800A30AA901A90AA71FA02BA409A509A6092C
:10072800A709A40A0319A50A0319A60A0319A70AFF
:100738000130F4007408A9060030AD000030AC00A8
:100748000030AB000030AA00230822042104200452
:100758000319F52BA801A80AA31BC02B0130F4002C
:100768000310A00DA10DA20DA30DF40BB42B0130A5
:10077800F4007408A807B02B0130F4000310AA0D88
:10078800AB0DAC0DAD0DF40BC22B23082702031DD6
:10079800D72B22082602031DD72B21082502031D6B
:1007A800D72B20082402031CE82B2008A4022108C8
:1007B800031C210FA5022208031C220FA6022308EE
:1007C800031C230FA7022A1401300310A30CA20C48
:1007D800A10CA00CFF3E031DE92B0130A802031D4C
:1007E800C02B29080319032CAA09AB09AC09AD09C8
:1007F800AA0A0319AB0A0319AC0A0319AD0A2D0892
:10080800A3002C08A2002B08A1002A08A0000800B9
:1008180083120313A9002908A700A8012708AA0022
:100828002808AB00831603131208013E8312031332
:10083800A000003003180130A1002B08A3002A08EB
:10084800A2008A11A9258A11831203132008A70080
:100858002108A8000310A70DA80D0310A70DA80DC7
:100868002708AA002808AB006430A0000030A100C7
:100878002B08A3002A08A2008A113F258A11831297
:1008880003132108AB002008AA002B08A8002A0897
:10089800A7000310A80CA70C0310A80CA70C270886
:1008A800950003302A05AA0000302B05AB00CF3095
:1008B800A700270897052A08A70003300310A70DEB
:1008C800FF3E031D622C0310270DA800280897047B
:1008D800762C04309200080005309200080007309A
:1008E800920008005508013A03196D2C053A0319BE
:1008F800702C143A0319732C812C080000308312D1
:100908000313AB000030AA000030A9000030A80093
:1009180023082204210420040319D92CAC01AC0AB1
:10092800A31BA42C0130F4000310A00DA10DA20DEF
:10093800A30DF40B982C0130F4007408AC07942C28
:100948000130F4000310A80DA90DAA0DAB0DF40B8E
:10095800A62C23082702031DBB2C22082602031DF0
:10096800BB2C21082502031DBB2C20082402031CD4
:10097800CC2C2008A4022108031C210FA502220860
:10098800031C220FA6022308031C230FA702281406
:1009980001300310A30CA20CA10CA00CFF3E031DF8
:1009A800CD2C0130AC02031DA42C2B08A3002A086F
:0C09B800A2002908A1002808A0000800E7
:100A000005308A000408840A82070034D034073491
:100A100000340034533479347334743465346D34B1
:100A2000203469346E3469347434693461346C341C
:100A300069347A34653464340A34003444344F34CD
:100A40004F3452345F3442345534543454344F3478
:100A50004E340A3400344C344F3443344B34313444
:100A60000A3400344C344F3443344B3432340A3477
:100A7000003444344F344F3452340A340034831237
:100A80000313A501A601200821040319782DA40150
:100A9000A40AA11B572D01300310A00DA10DFF3E8C
:100AA000031D4C2D0130F4007408A407492D0130BA
:100AB0000310A50DA60DFF3E031D582D210823028E
:100AC000031D642D20082202031C6D2D2008A202A4
:100AD0002108031CA303A302251401300310A10C59
:100AE000A00CFF3E031D6E2D0130A402031D572DE7
:100AF0002608A1002508A0000800831203179E0104
:100B00009F018316031307118712831203135411D5
:100B1000D416540887008316031307128312031395
:100B20005412540887008316031307108710071107
:100B30000514851405158113FF3095000717051658
:100B4000851687158A1103268B018B160B118B17BF
:100B50000800F401F50183120313201CB52D2208AF
:100B6000F4070318F50A2308F50701300310A20D56
:100B7000A30DFF3E031DB62D01300310A10CA00CE8
:100B8000FF3E031DBD2D20082104031DAB2D75085C
:100B9000A1007408A000080083120313A200A001A2
:100BA000A1012008220784008A1100258A11003A39
:100BB000031908002008220784008A1100258A11E1
:100BC0008A111C268A11013083120313A00703180F
:100BD000A10A0030A107D12D0B1DF82D0B118B168A
:100BE000063081000130F6070318F70A0030F707D6
:100BF0007308FF0072088A0071088400700E830079
:100C0000FE0E7E0E0900831603138112011281115C
:100C10000108F8390138810006308312031381007E
:100C20000800831603130F088F3960388F008F1563
:100C30000F158F100F100800F40083160313981C73
:100C40001D2E7408831203139900080083160313E2
:100C500007110C30F4007408831203139704080082
:100C6000F330F40074088312031397050800003072
:100C7000831603139818013008007708F5007608EA
:060C8000F400080001343D
:02400E00E4FFCD
:00000001FF
